{
  "contractName": "Data_sharing",
  "abi": [
    {
      "constant": true,
      "inputs": [
        {
          "name": "",
          "type": "address"
        }
      ],
      "name": "memberList",
      "outputs": [
        {
          "name": "",
          "type": "uint256"
        },
        {
          "name": "name",
          "type": "string"
        },
        {
          "name": "addr",
          "type": "address"
        },
        {
          "name": "ObjectNum",
          "type": "uint256"
        }
      ],
      "payable": false,
      "stateMutability": "view",
      "type": "function"
    },
    {
      "inputs": [
        {
          "name": "_MemberID",
          "type": "uint256",
          "indexed": true
        }
      ],
      "payable": false,
      "stateMutability": "view",
      "type": "function",
      "anonymous": false,
      "name": "membersCount",
      "constant": true,
      "outputs": [
        {
          "name": "",
          "type": "uint256"
        }
      ]
    },
    {
      "anonymous": false,
      "inputs": [
        {
          "indexed": true,
          "name": "",
          "type": "uint256"
        }
      ],
      "name": "president",
      "type": "function",
      "constant": true,
      "outputs": [
        {
          "name": "",
          "type": "address"
        },
        {
          "name": "name",
          "type": "string"
        },
        {
          "name": "addr",
          "type": "address"
        },
        {
          "name": "ObjectNum",
          "type": "uint256"
        }
      ],
      "payable": false,
      "stateMutability": "view"
    },
    {
      "constant": true,
      "inputs": [
        {
          "name": "",
          "type": "uint256",
          "indexed": true
        }
      ],
      "name": "members",
      "outputs": [
        {
          "name": "id",
          "type": "uint256"
        },
        {
          "name": "name",
          "type": "string"
        },
        {
          "name": "addr",
          "type": "address"
        },
        {
          "name": "ObjectNum",
          "type": "uint256"
        }
      ],
      "payable": false,
      "stateMutability": "view",
      "type": "function",
      "anonymous": false
    },
    {
      "constant": false,
      "inputs": [
        {
          "name": "_MemberID",
          "type": "uint256",
          "indexed": true
        }
      ],
      "name": "memberRegister",
      "outputs": [
        {
          "name": "",
          "type": "string"
        },
        {
          "name": "",
          "type": "address"
        }
      ],
      "payable": false,
      "stateMutability": "nonpayable",
      "type": "event",
      "anonymous": false
    },
    {
      "constant": false,
      "inputs": [
        {
          "name": "_name",
          "type": "string"
        }
      ],
      "name": "addPresident",
      "outputs": [
        {
          "name": "",
          "type": "string"
        },
        {
          "name": "",
          "type": "string"
        }
      ],
      "payable": false,
      "stateMutability": "nonpayable",
      "type": "function"
    },
    {
      "constant": false,
      "inputs": [
        {
          "name": "_name",
          "type": "string"
        },
        {
          "name": "_ObjectID",
          "type": "uint256"
        }
      ],
      "name": "joinMember",
      "outputs": [
        {
          "name": "",
          "type": "string"
        },
        {
          "name": "",
          "type": "address"
        }
      ],
      "payable": false,
      "stateMutability": "nonpayable",
      "type": "function"
    },
    {
      "constant": true,
      "inputs": [
        {
          "name": "_ObjectName",
          "type": "string"
        },
        {
          "name": "_ObjectID",
          "type": "uint256"
        }
      ],
      "name": "getPresidentName",
      "outputs": [
        {
          "name": "",
          "type": "string"
        },
        {
          "name": "",
          "type": "address"
        },
        {
          "name": "",
          "type": "string"
        }
      ],
      "payable": false,
      "stateMutability": "view",
      "type": "function"
    },
    {
      "constant": false,
      "inputs": [
        {
          "name": "_ObjectName",
          "type": "string"
        },
        {
          "name": "_ObjectID",
          "type": "uint256"
        }
      ],
      "name": "registerObject",
      "outputs": [
        {
          "name": "",
          "type": "string"
        },
        {
          "name": "",
          "type": "string"
        },
        {
          "name": "",
          "type": "string"
        }
      ],
      "payable": false,
      "stateMutability": "nonpayable",
      "type": "function"
    },
    {
      "constant": true,
      "inputs": [
        {
          "name": "_ObjectID",
          "type": "uint256"
        },
        {
          "name": "_ObjectID",
          "type": "uint256"
        }
      ],
      "name": "getObjectName",
      "outputs": [
        {
          "name": "",
          "type": "string"
        },
        {
          "name": "",
          "type": "string"
        }
      ],
      "payable": false,
      "stateMutability": "view",
      "type": "function"
    },
    {
      "constant": false,
      "inputs": [
        {
          "name": "_Other",
          "type": "address"
        },
        {
          "name": "_ObjectID",
          "type": "uint256"
        }
      ],
      "name": "authorization",
      "outputs": [
        {
          "name": "",
          "type": "string"
        },
        {
          "name": "",
          "type": "string"
        },
        {
          "name": "",
          "type": "string"
        }
      ],
      "payable": false,
      "stateMutability": "nonpayable",
      "type": "function"
    },
    {
      "constant": true,
      "inputs": [
        {
          "name": "_Other",
          "type": "address"
        },
        {
          "name": "_ObjectID",
          "type": "uint256"
        }
      ],
      "name": "getOthersObjectName",
      "outputs": [
        {
          "name": "",
          "type": "string"
        },
        {
          "name": "",
          "type": "string"
        },
        {
          "name": "",
          "type": "string"
        }
      ],
      "payable": false,
      "stateMutability": "view",
      "type": "function"
    }
  ],
  "bytecode": "0x608060405234801561001057600080fd5b506110a4806100206000396000f3fe6080604052600436106100ae5763ffffffff7c010000000000000000000000000000000000000000000000000000000060003504166305ae359281146100b3578063202c9094146100f8578063297f9af014610200578063324a1376146102155780634331d6f8146102465780634bb001f7146102815780634cc3d2d2146103345780635daf08ca146103e7578063ab12bd7d146104b0578063ba81a78b1461062d578063f809f461146106d3575b600080fd5b3480156100bf57600080fd5b506100e6600480360360208110156100d657600080fd5b5035600160a060020a0316610786565b60408051918252519081900360200190f35b34801561010457600080fd5b506101226004803603602081101561011b57600080fd5b5035610798565b604051808060200180602001838103835285818151815260200191508051906020019080838360005b8381101561016357818101518382015260200161014b565b50505050905090810190601f1680156101905780820380516001836020036101000a031916815260200191505b50838103825284518152845160209182019186019080838360005b838110156101c35781810151838201526020016101ab565b50505050905090810190601f1680156101f05780820380516001836020036101000a031916815260200191505b5094505050505060405180910390f35b34801561020c57600080fd5b506100e6610945565b34801561022157600080fd5b5061022a61094b565b60408051600160a060020a039092168252519081900360200190f35b34801561025257600080fd5b5061027f6004803603604081101561026957600080fd5b50600160a060020a03813516906020013561095a565b005b34801561028d57600080fd5b5061027f600480360360208110156102a457600080fd5b8101906020810181356401000000008111156102bf57600080fd5b8201836020820111156102d157600080fd5b803590602001918460018302840111640100000000831117156102f357600080fd5b91908080601f016020809104026020016040519081016040528093929190818152602001838380828437600092019190915250929550610a04945050505050565b34801561034057600080fd5b5061027f6004803603602081101561035757600080fd5b81019060208101813564010000000081111561037257600080fd5b82018360208201111561038457600080fd5b803590602001918460018302840111640100000000831117156103a657600080fd5b91908080601f016020809104026020016040519081016040528093929190818152602001838380828437600092019190915250929550610acc945050505050565b3480156103f357600080fd5b506104116004803603602081101561040a57600080fd5b5035610b18565b604051808581526020018060200184600160a060020a0316600160a060020a03168152602001838152602001828103825285818151815260200191508051906020019080838360005b8381101561047257818101518382015260200161045a565b50505050905090810190601f16801561049f5780820380516001836020036101000a031916815260200191505b509550505050505060405180910390f35b3480156104bc57600080fd5b506104e9600480360360408110156104d357600080fd5b50600160a060020a038135169060200135610bd3565b60405180806020018060200180602001848103845287818151815260200191508051906020019080838360005b8381101561052e578181015183820152602001610516565b50505050905090810190601f16801561055b5780820380516001836020036101000a031916815260200191505b50848103835286518152865160209182019188019080838360005b8381101561058e578181015183820152602001610576565b50505050905090810190601f1680156105bb5780820380516001836020036101000a031916815260200191505b50848103825285518152855160209182019187019080838360005b838110156105ee5781810151838201526020016105d6565b50505050905090810190601f16801561061b5780820380516001836020036101000a031916815260200191505b50965050505050505060405180910390f35b34801561063957600080fd5b50610642610e55565b604051808060200183600160a060020a0316600160a060020a03168152602001828103825284818151815260200191508051906020019080838360005b8381101561069757818101518382015260200161067f565b50505050905090810190601f1680156106c45780820380516001836020036101000a031916815260200191505b50935050505060405180910390f35b3480156106df57600080fd5b5061027f600480360360208110156106f657600080fd5b81019060208101813564010000000081111561071157600080fd5b82018360208201111561072357600080fd5b8035906020019184600183028401116401000000008311171561074557600080fd5b91908080601f016020809104026020016040519081016040528093929190818152602001838380828437600092019190915250929550610f46945050505050565b60016020526000908152604090205481565b33600081815260016020908152604080832054835260029182905290912001546060918291600160a060020a0316146107d057600080fd5b336000908152600160209081526040808320548352600290915290206003015483106107fb57600080fd5b336000908152600160208181526040808420548452600280835281852088865260048101845294829020948401805483519581161561010002600019011691909104601f81018490048402850184019092528184529392918491908301828280156108a75780601f1061087c576101008083540402835291602001916108a7565b820191906000526020600020905b81548152906001019060200180831161088a57829003601f168201915b5050845460408051602060026001851615610100026000190190941693909304601f8101849004840282018401909252818152959750869450925084019050828280156109355780601f1061090a57610100808354040283529160200191610935565b820191906000526020600020905b81548152906001019060200180831161091857829003601f168201915b5050505050905091509150915091565b60035481565b600054600160a060020a031681565b3360008181526001602090815260408083205483526002918290529091200154600160a060020a03161461098d57600080fd5b336000908152600160209081526040808320548352600290915290206003015481106109b857600080fd5b33600090815260016020818152604080842054845260028252808420600160a060020a03969096168452600590950181528483209383529290925291909120805460ff19169091179055565b6000805473ffffffffffffffffffffffffffffffffffffffff1916339081178255604080516080810182526003548082526020808301878152838501959095526060830186905290855260028152919093208351815591518051610a6e9260018501920190610fdd565b5060408281015160028301805473ffffffffffffffffffffffffffffffffffffffff1916600160a060020a03909216919091179055606090920151600391820155805433600090815260016020819052939020819055909101905550565b604080516080810182526003548082526020808301858152338486015260006060850181905292835260028252939091208251815592518051929392610a6e9260018501920190610fdd565b60026020818152600092835260409283902080546001808301805487519281161561010002600019011695909504601f8101859004850282018501909652858152909491939092909190830182828015610bb35780601f10610b8857610100808354040283529160200191610bb3565b820191906000526020600020905b815481529060010190602001808311610b9657829003601f168201915b5050505060028301546003909301549192600160a060020a031691905084565b600160a060020a03821660009081526001602090815260408083205483526002909152902060030154606090819081908410610c0e57600080fd5b600160a060020a0385166000818152600160208181526040808420548452600282528084209484526005909401815283832088845290529190205460ff16151514610c5857600080fd5b3360009081526001602081815260408084205484526002808352818520600160a060020a038b1686528484528286205486528184528286208a8752600481018552958390209085018054845181881615610100026000190190911693909304601f810186900486028401860190945283835295909401939290918591830182828015610d255780601f10610cfa57610100808354040283529160200191610d25565b820191906000526020600020905b815481529060010190602001808311610d0857829003601f168201915b5050855460408051602060026001851615610100026000190190941693909304601f810184900484028201840190925281815295985087945092508401905082828015610db35780601f10610d8857610100808354040283529160200191610db3565b820191906000526020600020905b815481529060010190602001808311610d9657829003601f168201915b5050845460408051602060026001851615610100026000190190941693909304601f810184900484028201840190925281815295975086945092508401905082828015610e415780601f10610e1657610100808354040283529160200191610e41565b820191906000526020600020905b815481529060010190602001808311610e2457829003601f168201915b505050505090509250925092509250925092565b6000808052600260208181527fac33ff75c19e70fe83507db0d683fd3465c996598dc972688b7ace676c89077d547fac33ff75c19e70fe83507db0d683fd3465c996598dc972688b7ace676c89077c805460408051601f60001960018516156101000201909316969096049182018590048502860185019052808552606095949193600160a060020a0390931692849190830182828015610f375780601f10610f0c57610100808354040283529160200191610f37565b820191906000526020600020905b815481529060010190602001808311610f1a57829003601f168201915b50505050509150915091509091565b3360008181526001602090815260408083205483526002918290529091200154600160a060020a031614610f7957600080fd5b336000908152600160209081526040808320548352600282528083206003810154845260040182529091208251610fb292840190610fdd565b5050336000908152600160208181526040808420548452600290915290912060030180549091019055565b828054600181600116156101000203166002900490600052602060002090601f016020900481019282601f1061101e57805160ff191683800117855561104b565b8280016001018555821561104b579182015b8281111561104b578251825591602001919060010190611030565b5061105792915061105b565b5090565b61107591905b808211156110575760008155600101611061565b9056fea165627a7a72305820764199f3cc42a16b3e9d740de701a1212aabb8c43ee98913f929b184a7c9236c0029",
  "source": "pragma solidity ^0.5.0;\n\ncontract Data_sharing {\n     // Model a Member\n     struct Member {\n        uint id;\n        string name;\n        address addr;\n        uint ObjectNum;\n        mapping(uint => string) ObjectID;\n        mapping(address => mapping(uint => bool)) Authorizations;\n    }\n    \n    address public president;\n    mapping(address => uint) public memberList;\n    mapping(uint => Member) public members;\n    uint public membersCount;\n    \n    \n    event memberRegister (\n        uint indexed _MemberID\n    );\n\n    \n    function addPresident(string memory _name) public{\n        president = msg.sender;\n        members[membersCount] = Member(membersCount, _name, msg.sender, 0);\n        memberList[msg.sender] = membersCount;\n        membersCount ++;\n    }\n\n    function joinMember(string memory _name) public {\n        members[membersCount] = Member(membersCount, _name, msg.sender, 0);\n        memberList[msg.sender] = membersCount;\n        membersCount ++;\n    }\n    \n    function getPresidentName()  public view returns(string memory, address){\n        return (members[0].name, members[0].addr);\n    }\n    \n    function registerObject(string memory _ObjectName) public {\n        require(members[memberList[msg.sender]].addr == msg.sender);\n        members[memberList[msg.sender]].ObjectID[members[memberList[msg.sender]].ObjectNum] = _ObjectName;\n        members[memberList[msg.sender]].ObjectNum++;\n        \n    }\n    \n    function getObjectName(uint _ObjectID) public view returns(string memory, string memory){\n        require(members[memberList[msg.sender]].addr == msg.sender);\n        require(_ObjectID < members[memberList[msg.sender]].ObjectNum);\n        return (members[memberList[msg.sender]].name, members[memberList[msg.sender]].ObjectID[_ObjectID]);\n    }\n    \n    function authorization(address _Other, uint _ObjectID) public{\n        require(members[memberList[msg.sender]].addr == msg.sender);\n        require(_ObjectID < members[memberList[msg.sender]].ObjectNum);\n        members[memberList[msg.sender]].Authorizations[_Other][_ObjectID] = true;\n    }\n    \n    function getOthersObjectName(address _Other, uint _ObjectID) public view returns(string memory, string memory, string memory){\n        require(_ObjectID < members[memberList[_Other]].ObjectNum);\n        require(members[memberList[_Other]].Authorizations[_Other][_ObjectID] == true);\n        return(members[memberList[msg.sender]].name, members[memberList[_Other]].name, members[memberList[_Other]].ObjectID[_ObjectID]);\n        \n    }\n}\n",
  "sourcePath": "/Users/henry/Desktop/Dapp/hwDapp/contracts/Data_sharing.sol",
  "compiler": {
    "name": "solc",
    "version": "0.5.0+commit.1d4f565a.Emscripten.clang"
  },
  "schemaVersion": "3.0.9",
  "updatedAt": "2019-05-20T05:55:47.115Z",
  "devdoc": {
    "methods": {}
  },
  "userdoc": {
    "methods": {}
  }
}